{
  "contractName": "store",
  "abi": [
    {
      "inputs": [],
      "payable": true,
      "stateMutability": "payable",
      "type": "constructor"
    },
    {
      "constant": true,
      "inputs": [],
      "name": "balance",
      "outputs": [
        {
          "internalType": "uint256",
          "name": "",
          "type": "uint256"
        }
      ],
      "payable": false,
      "stateMutability": "view",
      "type": "function"
    },
    {
      "constant": false,
      "inputs": [
        {
          "internalType": "string",
          "name": "base64_img",
          "type": "string"
        }
      ],
      "name": "pushimg",
      "outputs": [],
      "payable": false,
      "stateMutability": "nonpayable",
      "type": "function"
    },
    {
      "constant": false,
      "inputs": [
        {
          "internalType": "string",
          "name": "text",
          "type": "string"
        }
      ],
      "name": "pushtext",
      "outputs": [],
      "payable": false,
      "stateMutability": "nonpayable",
      "type": "function"
    },
    {
      "constant": true,
      "inputs": [
        {
          "internalType": "uint256",
          "name": "n",
          "type": "uint256"
        }
      ],
      "name": "returnImage",
      "outputs": [
        {
          "internalType": "string",
          "name": "",
          "type": "string"
        }
      ],
      "payable": false,
      "stateMutability": "view",
      "type": "function"
    },
    {
      "constant": true,
      "inputs": [],
      "name": "returntext",
      "outputs": [
        {
          "internalType": "string",
          "name": "",
          "type": "string"
        }
      ],
      "payable": false,
      "stateMutability": "view",
      "type": "function"
    },
    {
      "constant": true,
      "inputs": [],
      "name": "returnowner",
      "outputs": [
        {
          "internalType": "address",
          "name": "",
          "type": "address"
        }
      ],
      "payable": false,
      "stateMutability": "view",
      "type": "function"
    }
  ],
  "bytecode": "0x6080604052336000806101000a81548173ffffffffffffffffffffffffffffffffffffffff021916908373ffffffffffffffffffffffffffffffffffffffff160217905550610c23806100536000396000f3fe608060405234801561001057600080fd5b50600436106100625760003560e01c80632020d400146100675780632b64c044146100835780633393f7a5146100a15780633f695461146100bf57806367b48898146100db578063b69ef8a81461010b575b600080fd5b610081600480360361007c91908101906108ec565b610129565b005b61008b6102a2565b6040516100989190610a48565b60405180910390f35b6100a9610409565b6040516100b69190610a2d565b60405180910390f35b6100d960048036036100d491908101906108ec565b610432565b005b6100f560048036036100f0919081019061092d565b6105d3565b6040516101029190610a48565b60405180910390f35b6101136107d8565b6040516101209190610aaa565b60405180910390f35b6000600260003373ffffffffffffffffffffffffffffffffffffffff1673ffffffffffffffffffffffffffffffffffffffff1681526020019081526020016000206001015414156102485733600260003373ffffffffffffffffffffffffffffffffffffffff1673ffffffffffffffffffffffffffffffffffffffff16815260200190815260200160002060000160006101000a81548173ffffffffffffffffffffffffffffffffffffffff021916908373ffffffffffffffffffffffffffffffffffffffff160217905550600260003373ffffffffffffffffffffffffffffffffffffffff1673ffffffffffffffffffffffffffffffffffffffff168152602001908152602001600020600101600081548092919060010191905055505b80600260003373ffffffffffffffffffffffffffffffffffffffff1673ffffffffffffffffffffffffffffffffffffffff168152602001908152602001600020600301908051906020019061029e9291906107de565b5050565b60606001600260003373ffffffffffffffffffffffffffffffffffffffff1673ffffffffffffffffffffffffffffffffffffffff1681526020019081526020016000206001015414610329576040517f08c379a000000000000000000000000000000000000000000000000000000000815260040161032090610a6a565b60405180910390fd5b600260003373ffffffffffffffffffffffffffffffffffffffff1673ffffffffffffffffffffffffffffffffffffffff1681526020019081526020016000206003018054600181600116156101000203166002900480601f0160208091040260200160405190810160405280929190818152602001828054600181600116156101000203166002900480156103ff5780601f106103d4576101008083540402835291602001916103ff565b820191906000526020600020905b8154815290600101906020018083116103e257829003601f168201915b5050505050905090565b60008060009054906101000a900473ffffffffffffffffffffffffffffffffffffffff16905090565b6000600260003373ffffffffffffffffffffffffffffffffffffffff1673ffffffffffffffffffffffffffffffffffffffff1681526020019081526020016000206001015414156105515733600260003373ffffffffffffffffffffffffffffffffffffffff1673ffffffffffffffffffffffffffffffffffffffff16815260200190815260200160002060000160006101000a81548173ffffffffffffffffffffffffffffffffffffffff021916908373ffffffffffffffffffffffffffffffffffffffff160217905550600260003373ffffffffffffffffffffffffffffffffffffffff1673ffffffffffffffffffffffffffffffffffffffff168152602001908152602001600020600101600081548092919060010191905055505b600260003373ffffffffffffffffffffffffffffffffffffffff1673ffffffffffffffffffffffffffffffffffffffff1681526020019081526020016000206002018190806001815401808255809150509060018203906000526020600020016000909192909190915090805190602001906105ce9291906107de565b505050565b60606001600260003373ffffffffffffffffffffffffffffffffffffffff1673ffffffffffffffffffffffffffffffffffffffff168152602001908152602001600020600101541461065a576040517f08c379a000000000000000000000000000000000000000000000000000000000815260040161065190610a6a565b60405180910390fd5b600260003373ffffffffffffffffffffffffffffffffffffffff1673ffffffffffffffffffffffffffffffffffffffff1681526020019081526020016000206002018054905082106106e1576040517f08c379a00000000000000000000000000000000000000000000000000000000081526004016106d890610a8a565b60405180910390fd5b600260003373ffffffffffffffffffffffffffffffffffffffff1673ffffffffffffffffffffffffffffffffffffffff168152602001908152602001600020600201828154811061072e57fe5b906000526020600020018054600181600116156101000203166002900480601f0160208091040260200160405190810160405280929190818152602001828054600181600116156101000203166002900480156107cc5780601f106107a1576101008083540402835291602001916107cc565b820191906000526020600020905b8154815290600101906020018083116107af57829003601f168201915b50505050509050919050565b60015481565b828054600181600116156101000203166002900490600052602060002090601f016020900481019282601f1061081f57805160ff191683800117855561084d565b8280016001018555821561084d579182015b8281111561084c578251825591602001919060010190610831565b5b50905061085a919061085e565b5090565b61088091905b8082111561087c576000816000905550600101610864565b5090565b90565b600082601f83011261089457600080fd5b81356108a76108a282610af2565b610ac5565b915080825260208301602083018583830111156108c357600080fd5b6108ce838284610b76565b50505092915050565b6000813590506108e681610bc9565b92915050565b6000602082840312156108fe57600080fd5b600082013567ffffffffffffffff81111561091857600080fd5b61092484828501610883565b91505092915050565b60006020828403121561093f57600080fd5b600061094d848285016108d7565b91505092915050565b61095f81610b3a565b82525050565b600061097082610b1e565b61097a8185610b29565b935061098a818560208601610b85565b61099381610bb8565b840191505092915050565b60006109ab601083610b29565b91507f596f752068617665206e6f2064617461000000000000000000000000000000006000830152602082019050919050565b60006109eb601383610b29565b91507f496e646578206f7574206f6620626f756e6473000000000000000000000000006000830152602082019050919050565b610a2781610b6c565b82525050565b6000602082019050610a426000830184610956565b92915050565b60006020820190508181036000830152610a628184610965565b905092915050565b60006020820190508181036000830152610a838161099e565b9050919050565b60006020820190508181036000830152610aa3816109de565b9050919050565b6000602082019050610abf6000830184610a1e565b92915050565b6000604051905081810181811067ffffffffffffffff82111715610ae857600080fd5b8060405250919050565b600067ffffffffffffffff821115610b0957600080fd5b601f19601f8301169050602081019050919050565b600081519050919050565b600082825260208201905092915050565b6000610b4582610b4c565b9050919050565b600073ffffffffffffffffffffffffffffffffffffffff82169050919050565b6000819050919050565b82818337600083830152505050565b60005b83811015610ba3578082015181840152602081019050610b88565b83811115610bb2576000848401525b50505050565b6000601f19601f8301169050919050565b610bd281610b6c565b8114610bdd57600080fd5b5056fea365627a7a72315820a8ceaa3aaa8bb4026e1a51425c0de7cd16ea2313bbbcc39b0ab4605caa28fc256c6578706572696d656e74616cf564736f6c63430005100040",
  "source": "// SPDX-License-Identifier: MIT\r\npragma experimental ABIEncoderV2;\r\npragma solidity >=0.4.25 <0.9.0;\r\ncontract store{\r\n address private owner ;\r\n uint256 public balance;\r\n constructor()public payable{\r\n    owner = msg.sender;\r\n    //balance = msg.value;\r\n }\r\n\r\n struct data{\r\n address dataowner;\r\n uint256 i;\r\n string[] base64images;\r\n string htmltext;\r\n }\r\n \r\n\r\n\r\n    mapping(address => data) private pdfs;\r\n    uint256 private nextId;\r\n   \r\n function pushimg(string memory  base64_img) public {\r\n    if(pdfs[msg.sender].i == 0){\r\n        pdfs[msg.sender].dataowner = msg.sender;\r\n        (pdfs[msg.sender].i)++;\r\n    }\r\n    pdfs[msg.sender].base64images.push(base64_img);     \r\n  } \r\nfunction pushtext(string memory text) public {\r\n    if(pdfs[msg.sender].i == 0){\r\n        pdfs[msg.sender].dataowner = msg.sender;\r\n        (pdfs[msg.sender].i)++;\r\n    }\r\n    pdfs[msg.sender].htmltext = text;\r\n}\r\n   \r\n    \r\n    function returnImage(uint n) public isdata view returns(string memory) {\r\n       require(n < pdfs[msg.sender].base64images.length, \"Index out of bounds\");\r\n        \r\n        return (pdfs[msg.sender].base64images[n]);\r\n\r\n    }\r\n    function returntext () public isdata view returns(string memory){\r\n        return pdfs[msg.sender].htmltext;\r\n    }\r\n        \r\n    function returnowner() public view returns(address ){\r\n        return owner;\r\n    }\r\n   \r\n    \r\n    \r\n     modifier isdata\r\n    { \r\n        require(pdfs[msg.sender].i == 1,\"You have no data\"); \r\n        _; \r\n    } \r\n\r\n}",
  "sourcePath": "C:\\Users\\Saksham\\OneDrive\\Desktop\\BlockChain\\storage\\contracts\\store.sol",
  "compiler": {
    "name": "solc",
    "version": "0.5.16+commit.9c3226ce.Emscripten.clang"
  },
  "schemaVersion": "3.4.16",
  "updatedAt": "2024-04-08T21:32:50.123Z",
  "networkType": "ethereum",
  "devdoc": {
    "methods": {}
  },
  "userdoc": {
    "methods": {}
  }
}